{
  "_format": "hh-sol-artifact-1",
  "contractName": "MyEpicGame",
  "sourceName": "contracts/MyEpickGame.sol",
  "abi": [
    {
      "inputs": [
        {
          "internalType": "string[]",
          "name": "characterName",
          "type": "string[]"
        },
        {
          "internalType": "string[]",
          "name": "characterImageUri",
          "type": "string[]"
        },
        {
          "internalType": "uint256[]",
          "name": "characterHp",
          "type": "uint256[]"
        },
        {
          "internalType": "uint256[]",
          "name": "characterAttackDmg",
          "type": "uint256[]"
        },
        {
          "internalType": "string",
          "name": "bossName",
          "type": "string"
        },
        {
          "internalType": "string",
          "name": "bossimageUri",
          "type": "string"
        },
        {
          "internalType": "uint256",
          "name": "bossHp",
          "type": "uint256"
        },
        {
          "internalType": "uint256",
          "name": "boosAttackDamage",
          "type": "uint256"
        }
      ],
      "stateMutability": "nonpayable",
      "type": "constructor"
    },
    {
      "inputs": [],
      "name": "bossinsuffientHp",
      "type": "error"
    },
    {
      "inputs": [],
      "name": "plrinsuffientHp",
      "type": "error"
    },
    {
      "anonymous": false,
      "inputs": [
        {
          "indexed": true,
          "internalType": "address",
          "name": "owner",
          "type": "address"
        },
        {
          "indexed": true,
          "internalType": "address",
          "name": "approved",
          "type": "address"
        },
        {
          "indexed": true,
          "internalType": "uint256",
          "name": "tokenId",
          "type": "uint256"
        }
      ],
      "name": "Approval",
      "type": "event"
    },
    {
      "anonymous": false,
      "inputs": [
        {
          "indexed": true,
          "internalType": "address",
          "name": "owner",
          "type": "address"
        },
        {
          "indexed": true,
          "internalType": "address",
          "name": "operator",
          "type": "address"
        },
        {
          "indexed": false,
          "internalType": "bool",
          "name": "approved",
          "type": "bool"
        }
      ],
      "name": "ApprovalForAll",
      "type": "event"
    },
    {
      "anonymous": false,
      "inputs": [
        {
          "indexed": true,
          "internalType": "address",
          "name": "sender",
          "type": "address"
        },
        {
          "indexed": true,
          "internalType": "uint256",
          "name": "newBossHp",
          "type": "uint256"
        },
        {
          "indexed": true,
          "internalType": "uint256",
          "name": "newPlayerHp",
          "type": "uint256"
        }
      ],
      "name": "AttackComplete",
      "type": "event"
    },
    {
      "anonymous": false,
      "inputs": [
        {
          "indexed": true,
          "internalType": "address",
          "name": "sender",
          "type": "address"
        },
        {
          "indexed": true,
          "internalType": "uint256",
          "name": "tokenId",
          "type": "uint256"
        },
        {
          "indexed": true,
          "internalType": "uint256",
          "name": "characterIndex",
          "type": "uint256"
        }
      ],
      "name": "CharacterNFTMinted",
      "type": "event"
    },
    {
      "anonymous": false,
      "inputs": [
        {
          "indexed": true,
          "internalType": "address",
          "name": "from",
          "type": "address"
        },
        {
          "indexed": true,
          "internalType": "address",
          "name": "to",
          "type": "address"
        },
        {
          "indexed": true,
          "internalType": "uint256",
          "name": "tokenId",
          "type": "uint256"
        }
      ],
      "name": "Transfer",
      "type": "event"
    },
    {
      "inputs": [
        {
          "internalType": "address",
          "name": "to",
          "type": "address"
        },
        {
          "internalType": "uint256",
          "name": "tokenId",
          "type": "uint256"
        }
      ],
      "name": "approve",
      "outputs": [],
      "stateMutability": "nonpayable",
      "type": "function"
    },
    {
      "inputs": [],
      "name": "attackboss",
      "outputs": [],
      "stateMutability": "nonpayable",
      "type": "function"
    },
    {
      "inputs": [
        {
          "internalType": "address",
          "name": "owner",
          "type": "address"
        }
      ],
      "name": "balanceOf",
      "outputs": [
        {
          "internalType": "uint256",
          "name": "",
          "type": "uint256"
        }
      ],
      "stateMutability": "view",
      "type": "function"
    },
    {
      "inputs": [],
      "name": "boss",
      "outputs": [
        {
          "internalType": "string",
          "name": "name",
          "type": "string"
        },
        {
          "internalType": "string",
          "name": "imageUri",
          "type": "string"
        },
        {
          "internalType": "uint256",
          "name": "hp",
          "type": "uint256"
        },
        {
          "internalType": "uint256",
          "name": "maxhp",
          "type": "uint256"
        },
        {
          "internalType": "uint256",
          "name": "attackDamage",
          "type": "uint256"
        }
      ],
      "stateMutability": "view",
      "type": "function"
    },
    {
      "inputs": [],
      "name": "checkIfUserHasNFT",
      "outputs": [
        {
          "components": [
            {
              "internalType": "uint256",
              "name": "characterIndex",
              "type": "uint256"
            },
            {
              "internalType": "string",
              "name": "name",
              "type": "string"
            },
            {
              "internalType": "string",
              "name": "imageUri",
              "type": "string"
            },
            {
              "internalType": "uint256",
              "name": "hp",
              "type": "uint256"
            },
            {
              "internalType": "uint256",
              "name": "maxhp",
              "type": "uint256"
            },
            {
              "internalType": "uint256",
              "name": "attackDamage",
              "type": "uint256"
            }
          ],
          "internalType": "struct MyEpicGame.characterAttribute",
          "name": "",
          "type": "tuple"
        }
      ],
      "stateMutability": "view",
      "type": "function"
    },
    {
      "inputs": [],
      "name": "getAllDefaultcharacter",
      "outputs": [
        {
          "components": [
            {
              "internalType": "uint256",
              "name": "characterIndex",
              "type": "uint256"
            },
            {
              "internalType": "string",
              "name": "name",
              "type": "string"
            },
            {
              "internalType": "string",
              "name": "imageUri",
              "type": "string"
            },
            {
              "internalType": "uint256",
              "name": "hp",
              "type": "uint256"
            },
            {
              "internalType": "uint256",
              "name": "maxhp",
              "type": "uint256"
            },
            {
              "internalType": "uint256",
              "name": "attackDamage",
              "type": "uint256"
            }
          ],
          "internalType": "struct MyEpicGame.characterAttribute[]",
          "name": "",
          "type": "tuple[]"
        }
      ],
      "stateMutability": "view",
      "type": "function"
    },
    {
      "inputs": [
        {
          "internalType": "uint256",
          "name": "tokenId",
          "type": "uint256"
        }
      ],
      "name": "getApproved",
      "outputs": [
        {
          "internalType": "address",
          "name": "",
          "type": "address"
        }
      ],
      "stateMutability": "view",
      "type": "function"
    },
    {
      "inputs": [],
      "name": "getBoss",
      "outputs": [
        {
          "components": [
            {
              "internalType": "string",
              "name": "name",
              "type": "string"
            },
            {
              "internalType": "string",
              "name": "imageUri",
              "type": "string"
            },
            {
              "internalType": "uint256",
              "name": "hp",
              "type": "uint256"
            },
            {
              "internalType": "uint256",
              "name": "maxhp",
              "type": "uint256"
            },
            {
              "internalType": "uint256",
              "name": "attackDamage",
              "type": "uint256"
            }
          ],
          "internalType": "struct MyEpicGame.Big_Boss",
          "name": "",
          "type": "tuple"
        }
      ],
      "stateMutability": "view",
      "type": "function"
    },
    {
      "inputs": [
        {
          "internalType": "address",
          "name": "owner",
          "type": "address"
        },
        {
          "internalType": "address",
          "name": "operator",
          "type": "address"
        }
      ],
      "name": "isApprovedForAll",
      "outputs": [
        {
          "internalType": "bool",
          "name": "",
          "type": "bool"
        }
      ],
      "stateMutability": "view",
      "type": "function"
    },
    {
      "inputs": [
        {
          "internalType": "uint256",
          "name": "_characterIndex",
          "type": "uint256"
        }
      ],
      "name": "mintCharacterNFT",
      "outputs": [],
      "stateMutability": "nonpayable",
      "type": "function"
    },
    {
      "inputs": [],
      "name": "name",
      "outputs": [
        {
          "internalType": "string",
          "name": "",
          "type": "string"
        }
      ],
      "stateMutability": "view",
      "type": "function"
    },
    {
      "inputs": [
        {
          "internalType": "address",
          "name": "",
          "type": "address"
        }
      ],
      "name": "nftholder",
      "outputs": [
        {
          "internalType": "uint256",
          "name": "",
          "type": "uint256"
        }
      ],
      "stateMutability": "view",
      "type": "function"
    },
    {
      "inputs": [
        {
          "internalType": "uint256",
          "name": "",
          "type": "uint256"
        }
      ],
      "name": "nftholderAttribute",
      "outputs": [
        {
          "internalType": "uint256",
          "name": "characterIndex",
          "type": "uint256"
        },
        {
          "internalType": "string",
          "name": "name",
          "type": "string"
        },
        {
          "internalType": "string",
          "name": "imageUri",
          "type": "string"
        },
        {
          "internalType": "uint256",
          "name": "hp",
          "type": "uint256"
        },
        {
          "internalType": "uint256",
          "name": "maxhp",
          "type": "uint256"
        },
        {
          "internalType": "uint256",
          "name": "attackDamage",
          "type": "uint256"
        }
      ],
      "stateMutability": "view",
      "type": "function"
    },
    {
      "inputs": [
        {
          "internalType": "uint256",
          "name": "tokenId",
          "type": "uint256"
        }
      ],
      "name": "ownerOf",
      "outputs": [
        {
          "internalType": "address",
          "name": "",
          "type": "address"
        }
      ],
      "stateMutability": "view",
      "type": "function"
    },
    {
      "inputs": [
        {
          "internalType": "address",
          "name": "from",
          "type": "address"
        },
        {
          "internalType": "address",
          "name": "to",
          "type": "address"
        },
        {
          "internalType": "uint256",
          "name": "tokenId",
          "type": "uint256"
        }
      ],
      "name": "safeTransferFrom",
      "outputs": [],
      "stateMutability": "nonpayable",
      "type": "function"
    },
    {
      "inputs": [
        {
          "internalType": "address",
          "name": "from",
          "type": "address"
        },
        {
          "internalType": "address",
          "name": "to",
          "type": "address"
        },
        {
          "internalType": "uint256",
          "name": "tokenId",
          "type": "uint256"
        },
        {
          "internalType": "bytes",
          "name": "data",
          "type": "bytes"
        }
      ],
      "name": "safeTransferFrom",
      "outputs": [],
      "stateMutability": "nonpayable",
      "type": "function"
    },
    {
      "inputs": [
        {
          "internalType": "address",
          "name": "operator",
          "type": "address"
        },
        {
          "internalType": "bool",
          "name": "approved",
          "type": "bool"
        }
      ],
      "name": "setApprovalForAll",
      "outputs": [],
      "stateMutability": "nonpayable",
      "type": "function"
    },
    {
      "inputs": [
        {
          "internalType": "bytes4",
          "name": "interfaceId",
          "type": "bytes4"
        }
      ],
      "name": "supportsInterface",
      "outputs": [
        {
          "internalType": "bool",
          "name": "",
          "type": "bool"
        }
      ],
      "stateMutability": "view",
      "type": "function"
    },
    {
      "inputs": [],
      "name": "symbol",
      "outputs": [
        {
          "internalType": "string",
          "name": "",
          "type": "string"
        }
      ],
      "stateMutability": "view",
      "type": "function"
    },
    {
      "inputs": [
        {
          "internalType": "uint256",
          "name": "_tokenId",
          "type": "uint256"
        }
      ],
      "name": "tokenURI",
      "outputs": [
        {
          "internalType": "string",
          "name": "",
          "type": "string"
        }
      ],
      "stateMutability": "view",
      "type": "function"
    },
    {
      "inputs": [
        {
          "internalType": "address",
          "name": "from",
          "type": "address"
        },
        {
          "internalType": "address",
          "name": "to",
          "type": "address"
        },
        {
          "internalType": "uint256",
          "name": "tokenId",
          "type": "uint256"
        }
      ],
      "name": "transferFrom",
      "outputs": [],
      "stateMutability": "nonpayable",
      "type": "function"
    }
  ],
  "bytecode": "0x60806040526000600f553480156200001657600080fd5b50604051620059873803806200598783398181016040528101906200003c919062000a8f565b6040518060400160405280600581526020017f4865726f730000000000000000000000000000000000000000000000000000008152506040518060400160405280600481526020017f4865726f000000000000000000000000000000000000000000000000000000008152508160009081620000b9919062000e53565b508060019081620000cb919062000e53565b5050506040518060a0016040528085815260200184815260200183815260200183815260200182815250600760008201518160000190816200010e919062000e53565b50602082015181600101908162000126919062000e53565b50604082015181600201556060820151816003015560808201518160040155905050620002a96040518060600160405280602b81526020016200595c602b913960076000018054620001789062000c4c565b80601f0160208091040260200160405190810160405280929190818152602001828054620001a69062000c4c565b8015620001f75780601f10620001cb57610100808354040283529160200191620001f7565b820191906000526020600020905b815481529060010190602001808311620001d957829003601f168201915b505050505060076002015460076001018054620002149062000c4c565b80601f0160208091040260200160405190810160405280929190818152602001828054620002429062000c4c565b8015620002935780601f10620002675761010080835404028352916020019162000293565b820191906000526020600020905b8154815290600101906020018083116200027557829003601f168201915b50505050506200060460201b62001b7e1760201c565b60005b8851811015620005de57600e6040518060c001604052808381526020018b8481518110620002df57620002de62000f3a565b5b602002602001015181526020018a848151811062000302576200030162000f3a565b5b6020026020010151815260200189848151811062000325576200032462000f3a565b5b6020026020010151815260200189848151811062000348576200034762000f3a565b5b602002602001015181526020018884815181106200036b576200036a62000f3a565b5b60200260200101518152509080600181540180825580915050600190039060005260206000209060060201600090919091909150600082015181600001556020820151816001019081620003c0919062000e53565b506040820151816002019081620003d8919062000e53565b50606082015181600301556080820151816004015560a0820151816005015550506000600e828154811062000412576200041162000f3a565b5b90600052602060002090600602016040518060c001604052908160008201548152602001600182018054620004479062000c4c565b80601f0160208091040260200160405190810160405280929190818152602001828054620004759062000c4c565b8015620004c65780601f106200049a57610100808354040283529160200191620004c6565b820191906000526020600020905b815481529060010190602001808311620004a857829003601f168201915b50505050508152602001600282018054620004e19062000c4c565b80601f01602080910402602001604051908101604052809291908181526020018280546200050f9062000c4c565b8015620005605780601f10620005345761010080835404028352916020019162000560565b820191906000526020600020905b8154815290600101906020018083116200054257829003601f168201915b5050505050815260200160038201548152602001600482015481526020016005820154815250509050620005c760405180606001604052806025815260200162005937602591398260200151836060015184604001516200060460201b62001b7e1760201c565b508080620005d59062000f98565b915050620002ac565b50620005f66006620006b060201b62001c201760201c565b5050505050505050620010aa565b620006aa8484848460405160240162000621949392919062001048565b6040516020818303038152906040527f5d1a971a000000000000000000000000000000000000000000000000000000007bffffffffffffffffffffffffffffffffffffffffffffffffffffffff19166020820180517bffffffffffffffffffffffffffffffffffffffffffffffffffffffff8381831617835250505050620006c660201b60201c565b50505050565b6001816000016000828254019250508190555050565b60008151905060006a636f6e736f6c652e6c6f679050602083016000808483855afa5050505050565b6000604051905090565b600080fd5b600080fd5b600080fd5b6000601f19601f8301169050919050565b7f4e487b7100000000000000000000000000000000000000000000000000000000600052604160045260246000fd5b620007538262000708565b810181811067ffffffffffffffff8211171562000775576200077462000719565b5b80604052505050565b60006200078a620006ef565b905062000798828262000748565b919050565b600067ffffffffffffffff821115620007bb57620007ba62000719565b5b602082029050602081019050919050565b600080fd5b600080fd5b600067ffffffffffffffff821115620007f457620007f362000719565b5b620007ff8262000708565b9050602081019050919050565b60005b838110156200082c5780820151818401526020810190506200080f565b60008484015250505050565b60006200084f6200084984620007d6565b6200077e565b9050828152602081018484840111156200086e576200086d620007d1565b5b6200087b8482856200080c565b509392505050565b600082601f8301126200089b576200089a62000703565b5b8151620008ad84826020860162000838565b91505092915050565b6000620008cd620008c7846200079d565b6200077e565b90508083825260208201905060208402830185811115620008f357620008f2620007cc565b5b835b818110156200094157805167ffffffffffffffff8111156200091c576200091b62000703565b5b8086016200092b898262000883565b85526020850194505050602081019050620008f5565b5050509392505050565b600082601f83011262000963576200096262000703565b5b815162000975848260208601620008b6565b91505092915050565b600067ffffffffffffffff8211156200099c576200099b62000719565b5b602082029050602081019050919050565b6000819050919050565b620009c281620009ad565b8114620009ce57600080fd5b50565b600081519050620009e281620009b7565b92915050565b6000620009ff620009f9846200097e565b6200077e565b9050808382526020820190506020840283018581111562000a255762000a24620007cc565b5b835b8181101562000a52578062000a3d8882620009d1565b84526020840193505060208101905062000a27565b5050509392505050565b600082601f83011262000a745762000a7362000703565b5b815162000a86848260208601620009e8565b91505092915050565b600080600080600080600080610100898b03121562000ab35762000ab2620006f9565b5b600089015167ffffffffffffffff81111562000ad45762000ad3620006fe565b5b62000ae28b828c016200094b565b985050602089015167ffffffffffffffff81111562000b065762000b05620006fe565b5b62000b148b828c016200094b565b975050604089015167ffffffffffffffff81111562000b385762000b37620006fe565b5b62000b468b828c0162000a5c565b965050606089015167ffffffffffffffff81111562000b6a5762000b69620006fe565b5b62000b788b828c0162000a5c565b955050608089015167ffffffffffffffff81111562000b9c5762000b9b620006fe565b5b62000baa8b828c0162000883565b94505060a089015167ffffffffffffffff81111562000bce5762000bcd620006fe565b5b62000bdc8b828c0162000883565b93505060c062000bef8b828c01620009d1565b92505060e062000c028b828c01620009d1565b9150509295985092959890939650565b600081519050919050565b7f4e487b7100000000000000000000000000000000000000000000000000000000600052602260045260246000fd5b6000600282049050600182168062000c6557607f821691505b60208210810362000c7b5762000c7a62000c1d565b5b50919050565b60008190508160005260206000209050919050565b60006020601f8301049050919050565b600082821b905092915050565b60006008830262000ce57fffffffffffffffffffffffffffffffffffffffffffffffffffffffffffffffff8262000ca6565b62000cf1868362000ca6565b95508019841693508086168417925050509392505050565b6000819050919050565b600062000d3462000d2e62000d2884620009ad565b62000d09565b620009ad565b9050919050565b6000819050919050565b62000d508362000d13565b62000d6862000d5f8262000d3b565b84845462000cb3565b825550505050565b600090565b62000d7f62000d70565b62000d8c81848462000d45565b505050565b5b8181101562000db45762000da860008262000d75565b60018101905062000d92565b5050565b601f82111562000e035762000dcd8162000c81565b62000dd88462000c96565b8101602085101562000de8578190505b62000e0062000df78562000c96565b83018262000d91565b50505b505050565b600082821c905092915050565b600062000e286000198460080262000e08565b1980831691505092915050565b600062000e43838362000e15565b9150826002028217905092915050565b62000e5e8262000c12565b67ffffffffffffffff81111562000e7a5762000e7962000719565b5b62000e86825462000c4c565b62000e9382828562000db8565b600060209050601f83116001811462000ecb576000841562000eb6578287015190505b62000ec2858262000e35565b86555062000f32565b601f19841662000edb8662000c81565b60005b8281101562000f055784890151825560018201915060208501945060208101905062000ede565b8683101562000f25578489015162000f21601f89168262000e15565b8355505b6001600288020188555050505b505050505050565b7f4e487b7100000000000000000000000000000000000000000000000000000000600052603260045260246000fd5b7f4e487b7100000000000000000000000000000000000000000000000000000000600052601160045260246000fd5b600062000fa582620009ad565b91507fffffffffffffffffffffffffffffffffffffffffffffffffffffffffffffffff820362000fda5762000fd962000f69565b5b600182019050919050565b600082825260208201905092915050565b6000620010038262000c12565b6200100f818562000fe5565b9350620010218185602086016200080c565b6200102c8162000708565b840191505092915050565b6200104281620009ad565b82525050565b6000608082019050818103600083015262001064818762000ff6565b905081810360208301526200107a818662000ff6565b90506200108b604083018562001037565b81810360608301526200109f818462000ff6565b905095945050505050565b61487d80620010ba6000396000f3fe608060405234801561001057600080fd5b50600436106101375760003560e01c8063895f4c0a116100b8578063c76d9e7d1161007c578063c76d9e7d14610351578063c772af391461036f578063c87b56dd14610391578063c8cf27f4146103c1578063e985e9c5146103df578063f8b81ef71461040f57610137565b8063895f4c0a146102a857806395d89b41146102c6578063a22cb465146102e4578063b2069b3714610300578063b88d4fde1461033557610137565b8063279a0c33116100ff578063279a0c33146101f257806342842e0e146101fc5780636352211e1461021857806370a082311461024857806383eb7c471461027857610137565b806301ffc9a71461013c57806306fdde031461016c578063081812fc1461018a578063095ea7b3146101ba57806323b872dd146101d6575b600080fd5b61015660048036038101906101519190612d5c565b61042b565b6040516101639190612da4565b60405180910390f35b61017461050d565b6040516101819190612e4f565b60405180910390f35b6101a4600480360381019061019f9190612ea7565b61059f565b6040516101b19190612f15565b60405180910390f35b6101d460048036038101906101cf9190612f5c565b6105e5565b005b6101f060048036038101906101eb9190612f9c565b6106fc565b005b6101fa61075c565b005b61021660048036038101906102119190612f9c565b610b94565b005b610232600480360381019061022d9190612ea7565b610bb4565b60405161023f9190612f15565b60405180910390f35b610262600480360381019061025d9190612fef565b610c65565b60405161026f919061302b565b60405180910390f35b610292600480360381019061028d9190612fef565b610d1c565b60405161029f919061302b565b60405180910390f35b6102b0610d34565b6040516102bd91906131f1565b60405180910390f35b6102ce610edf565b6040516102db9190612e4f565b60405180910390f35b6102fe60048036038101906102f9919061323f565b610f71565b005b61031a60048036038101906103159190612ea7565b610f87565b60405161032c9695949392919061327f565b60405180910390f35b61034f600480360381019061034a9190613423565b6110d3565b005b610359611135565b6040516103669190613523565b60405180910390f35b610377611291565b604051610388959493929190613545565b60405180910390f35b6103ab60048036038101906103a69190612ea7565b6113c5565b6040516103b89190612e4f565b60405180910390f35b6103c96115e0565b6040516103d69190613636565b60405180910390f35b6103f960048036038101906103f49190613658565b6117b8565b6040516104069190612da4565b60405180910390f35b61042960048036038101906104249190612ea7565b61184c565b005b60007f80ac58cd000000000000000000000000000000000000000000000000000000007bffffffffffffffffffffffffffffffffffffffffffffffffffffffff1916827bffffffffffffffffffffffffffffffffffffffffffffffffffffffff191614806104f657507f5b5e139f000000000000000000000000000000000000000000000000000000007bffffffffffffffffffffffffffffffffffffffffffffffffffffffff1916827bffffffffffffffffffffffffffffffffffffffffffffffffffffffff1916145b80610506575061050582611c36565b5b9050919050565b60606000805461051c906136c7565b80601f0160208091040260200160405190810160405280929190818152602001828054610548906136c7565b80156105955780601f1061056a57610100808354040283529160200191610595565b820191906000526020600020905b81548152906001019060200180831161057857829003601f168201915b5050505050905090565b60006105aa82611ca0565b6004600083815260200190815260200160002060009054906101000a900473ffffffffffffffffffffffffffffffffffffffff169050919050565b60006105f082610bb4565b90508073ffffffffffffffffffffffffffffffffffffffff168373ffffffffffffffffffffffffffffffffffffffff1603610660576040517f08c379a00000000000000000000000000000000000000000000000000000000081526004016106579061376a565b60405180910390fd5b8073ffffffffffffffffffffffffffffffffffffffff1661067f611ceb565b73ffffffffffffffffffffffffffffffffffffffff1614806106ae57506106ad816106a8611ceb565b6117b8565b5b6106ed576040517f08c379a00000000000000000000000000000000000000000000000000000000081526004016106e4906137fc565b60405180910390fd5b6106f78383611cf3565b505050565b61070d610707611ceb565b82611dac565b61074c576040517f08c379a00000000000000000000000000000000000000000000000000000000081526004016107439061388e565b60405180910390fd5b610757838383611e41565b505050565b6000600d60003373ffffffffffffffffffffffffffffffffffffffff1673ffffffffffffffffffffffffffffffffffffffff1681526020019081526020016000205490506000600c6000838152602001908152602001600020905061086f604051806080016040528060478152602001614743604791398260010180546107e2906136c7565b80601f016020809104026020016040519081016040528092919081815260200182805461080e906136c7565b801561085b5780601f106108305761010080835404028352916020019161085b565b820191906000526020600020905b81548152906001019060200180831161083e57829003601f168201915b5050505050836003015484600501546120a7565b6109476040518060400160405280602081526020017f0a20426f737320257320686173202f7720257320487020616e64202573204164815250600760000180546108b8906136c7565b80601f01602080910402602001604051908101604052809291908181526020018280546108e4906136c7565b80156109315780601f1061090657610100808354040283529160200191610931565b820191906000526020600020905b81548152906001019060200180831161091457829003601f168201915b50505050506007600201546007600401546120a7565b6000816003015411610985576040517f1dd3244f00000000000000000000000000000000000000000000000000000000815260040160405180910390fd5b6000600760020154116109c4576040517f595c148e00000000000000000000000000000000000000000000000000000000815260040160405180910390fd5b806005015460076002015410156109e5576000600760020181905550610a04565b80600501546007600201546109fa91906138dd565b6007600201819055505b60076004015481600301541015610a245760008160030181905550610a42565b6007600401548160030154610a3991906138dd565b81600301819055505b610a6960405180606001604052806025815260200161471e60259139600760020154612149565b610a8f6040518060600160405280602881526020016147ca602891398260030154612149565b610b4260405180606001604052806028815260200161482060289139826001018054610aba906136c7565b80601f0160208091040260200160405190810160405280929190818152602001828054610ae6906136c7565b8015610b335780601f10610b0857610100808354040283529160200191610b33565b820191906000526020600020905b815481529060010190602001808311610b1657829003601f168201915b505050505083600301546121e5565b80600301546007600201543373ffffffffffffffffffffffffffffffffffffffff167f32bd565ee3f2cb5ddd742bbecd6048d3e9abe90b3827a40c2b72d232e71e3c9d60405160405180910390a45050565b610baf838383604051806020016040528060008152506110d3565b505050565b6000806002600084815260200190815260200160002060009054906101000a900473ffffffffffffffffffffffffffffffffffffffff169050600073ffffffffffffffffffffffffffffffffffffffff168173ffffffffffffffffffffffffffffffffffffffff1603610c5c576040517f08c379a0000000000000000000000000000000000000000000000000000000008152600401610c539061395d565b60405180910390fd5b80915050919050565b60008073ffffffffffffffffffffffffffffffffffffffff168273ffffffffffffffffffffffffffffffffffffffff1603610cd5576040517f08c379a0000000000000000000000000000000000000000000000000000000008152600401610ccc906139ef565b60405180910390fd5b600360008373ffffffffffffffffffffffffffffffffffffffff1673ffffffffffffffffffffffffffffffffffffffff168152602001908152602001600020549050919050565b600d6020528060005260406000206000915090505481565b6060600e805480602002602001604051908101604052809291908181526020016000905b82821015610ed657838290600052602060002090600602016040518060c001604052908160008201548152602001600182018054610d95906136c7565b80601f0160208091040260200160405190810160405280929190818152602001828054610dc1906136c7565b8015610e0e5780601f10610de357610100808354040283529160200191610e0e565b820191906000526020600020905b815481529060010190602001808311610df157829003601f168201915b50505050508152602001600282018054610e27906136c7565b80601f0160208091040260200160405190810160405280929190818152602001828054610e53906136c7565b8015610ea05780601f10610e7557610100808354040283529160200191610ea0565b820191906000526020600020905b815481529060010190602001808311610e8357829003601f168201915b50505050508152602001600382015481526020016004820154815260200160058201548152505081526020019060010190610d58565b50505050905090565b606060018054610eee906136c7565b80601f0160208091040260200160405190810160405280929190818152602001828054610f1a906136c7565b8015610f675780601f10610f3c57610100808354040283529160200191610f67565b820191906000526020600020905b815481529060010190602001808311610f4a57829003601f168201915b5050505050905090565b610f83610f7c611ceb565b8383612284565b5050565b600c602052806000526040600020600091509050806000015490806001018054610fb0906136c7565b80601f0160208091040260200160405190810160405280929190818152602001828054610fdc906136c7565b80156110295780601f10610ffe57610100808354040283529160200191611029565b820191906000526020600020905b81548152906001019060200180831161100c57829003601f168201915b50505050509080600201805461103e906136c7565b80601f016020809104026020016040519081016040528092919081815260200182805461106a906136c7565b80156110b75780601f1061108c576101008083540402835291602001916110b7565b820191906000526020600020905b81548152906001019060200180831161109a57829003601f168201915b5050505050908060030154908060040154908060050154905086565b6110e46110de611ceb565b83611dac565b611123576040517f08c379a000000000000000000000000000000000000000000000000000000000815260040161111a9061388e565b60405180910390fd5b61112f848484846123f0565b50505050565b61113d612c8b565b60076040518060a001604052908160008201805461115a906136c7565b80601f0160208091040260200160405190810160405280929190818152602001828054611186906136c7565b80156111d35780601f106111a8576101008083540402835291602001916111d3565b820191906000526020600020905b8154815290600101906020018083116111b657829003601f168201915b505050505081526020016001820180546111ec906136c7565b80601f0160208091040260200160405190810160405280929190818152602001828054611218906136c7565b80156112655780601f1061123a57610100808354040283529160200191611265565b820191906000526020600020905b81548152906001019060200180831161124857829003601f168201915b505050505081526020016002820154815260200160038201548152602001600482015481525050905090565b60078060000180546112a2906136c7565b80601f01602080910402602001604051908101604052809291908181526020018280546112ce906136c7565b801561131b5780601f106112f05761010080835404028352916020019161131b565b820191906000526020600020905b8154815290600101906020018083116112fe57829003601f168201915b505050505090806001018054611330906136c7565b80601f016020809104026020016040519081016040528092919081815260200182805461135c906136c7565b80156113a95780601f1061137e576101008083540402835291602001916113a9565b820191906000526020600020905b81548152906001019060200180831161138c57829003601f168201915b5050505050908060020154908060030154908060040154905085565b60606000600c60008481526020019081526020016000206040518060c001604052908160008201548152602001600182018054611401906136c7565b80601f016020809104026020016040519081016040528092919081815260200182805461142d906136c7565b801561147a5780601f1061144f5761010080835404028352916020019161147a565b820191906000526020600020905b81548152906001019060200180831161145d57829003601f168201915b50505050508152602001600282018054611493906136c7565b80601f01602080910402602001604051908101604052809291908181526020018280546114bf906136c7565b801561150c5780601f106114e15761010080835404028352916020019161150c565b820191906000526020600020905b8154815290600101906020018083116114ef57829003601f168201915b50505050508152602001600382015481526020016004820154815260200160058201548152505090506000611544826060015161244c565b90506000611555836080015161244c565b905060006115668460a0015161244c565b905060006115ac856020015161157b8961244c565b876040015187878760405160200161159896959493929190613cd1565b6040516020818303038152906040526125ac565b90506000816040516020016115c19190613dc2565b6040516020818303038152906040529050809650505050505050919050565b6115e8612cba565b6000600d60003373ffffffffffffffffffffffffffffffffffffffff1673ffffffffffffffffffffffffffffffffffffffff16815260200190815260200160002054905060008111156117a757600c60008281526020019081526020016000206040518060c00160405290816000820154815260200160018201805461166d906136c7565b80601f0160208091040260200160405190810160405280929190818152602001828054611699906136c7565b80156116e65780601f106116bb576101008083540402835291602001916116e6565b820191906000526020600020905b8154815290600101906020018083116116c957829003601f168201915b505050505081526020016002820180546116ff906136c7565b80601f016020809104026020016040519081016040528092919081815260200182805461172b906136c7565b80156117785780601f1061174d57610100808354040283529160200191611778565b820191906000526020600020905b81548152906001019060200180831161175b57829003601f168201915b5050505050815260200160038201548152602001600482015481526020016005820154815250509150506117b5565b6117af612cba565b80925050505b90565b6000600560008473ffffffffffffffffffffffffffffffffffffffff1673ffffffffffffffffffffffffffffffffffffffff16815260200190815260200160002060008373ffffffffffffffffffffffffffffffffffffffff1673ffffffffffffffffffffffffffffffffffffffff16815260200190815260200160002060009054906101000a900460ff16905092915050565b60006118586006612743565b90506118643382612751565b6040518060c00160405280838152602001600e848154811061188957611888613de4565b5b906000526020600020906006020160010180546118a5906136c7565b80601f01602080910402602001604051908101604052809291908181526020018280546118d1906136c7565b801561191e5780601f106118f35761010080835404028352916020019161191e565b820191906000526020600020905b81548152906001019060200180831161190157829003601f168201915b50505050508152602001600e848154811061193c5761193b613de4565b5b90600052602060002090600602016002018054611958906136c7565b80601f0160208091040260200160405190810160405280929190818152602001828054611984906136c7565b80156119d15780601f106119a6576101008083540402835291602001916119d1565b820191906000526020600020905b8154815290600101906020018083116119b457829003601f168201915b50505050508152602001600e84815481106119ef576119ee613de4565b5b9060005260206000209060060201600301548152602001600e8481548110611a1a57611a19613de4565b5b9060005260206000209060060201600401548152602001600e8481548110611a4557611a44613de4565b5b906000526020600020906006020160050154815250600c6000838152602001908152602001600020600082015181600001556020820151816001019081611a8c9190613fbf565b506040820151816002019081611aa29190613fbf565b50606082015181600301556080820151816004015560a08201518160050155905050611ae76040518060600160405280602e81526020016147f2602e9139828461276f565b80600d60003373ffffffffffffffffffffffffffffffffffffffff1673ffffffffffffffffffffffffffffffffffffffff16815260200190815260200160002081905550611b356006611c20565b81813373ffffffffffffffffffffffffffffffffffffffff167f4bc303fd457a97b4691b9af582ce71868a3d258638c8d4f8c60988a0f0bfb8cd60405160405180910390a45050565b611c1a84848484604051602401611b989493929190614091565b6040516020818303038152906040527f5d1a971a000000000000000000000000000000000000000000000000000000007bffffffffffffffffffffffffffffffffffffffffffffffffffffffff19166020820180517bffffffffffffffffffffffffffffffffffffffffffffffffffffffff838183161783525050505061280e565b50505050565b6001816000016000828254019250508190555050565b60007f01ffc9a7000000000000000000000000000000000000000000000000000000007bffffffffffffffffffffffffffffffffffffffffffffffffffffffff1916827bffffffffffffffffffffffffffffffffffffffffffffffffffffffff1916149050919050565b611ca981612837565b611ce8576040517f08c379a0000000000000000000000000000000000000000000000000000000008152600401611cdf9061395d565b60405180910390fd5b50565b600033905090565b816004600083815260200190815260200160002060006101000a81548173ffffffffffffffffffffffffffffffffffffffff021916908373ffffffffffffffffffffffffffffffffffffffff160217905550808273ffffffffffffffffffffffffffffffffffffffff16611d6683610bb4565b73ffffffffffffffffffffffffffffffffffffffff167f8c5be1e5ebec7d5bd14f71427d1e84f3dd0314c0f7b2291e5b200ac8c7c3b92560405160405180910390a45050565b600080611db883610bb4565b90508073ffffffffffffffffffffffffffffffffffffffff168473ffffffffffffffffffffffffffffffffffffffff161480611dfa5750611df981856117b8565b5b80611e3857508373ffffffffffffffffffffffffffffffffffffffff16611e208461059f565b73ffffffffffffffffffffffffffffffffffffffff16145b91505092915050565b8273ffffffffffffffffffffffffffffffffffffffff16611e6182610bb4565b73ffffffffffffffffffffffffffffffffffffffff1614611eb7576040517f08c379a0000000000000000000000000000000000000000000000000000000008152600401611eae9061415d565b60405180910390fd5b600073ffffffffffffffffffffffffffffffffffffffff168273ffffffffffffffffffffffffffffffffffffffff1603611f26576040517f08c379a0000000000000000000000000000000000000000000000000000000008152600401611f1d906141ef565b60405180910390fd5b611f318383836128a3565b611f3c600082611cf3565b6001600360008573ffffffffffffffffffffffffffffffffffffffff1673ffffffffffffffffffffffffffffffffffffffff1681526020019081526020016000206000828254611f8c91906138dd565b925050819055506001600360008473ffffffffffffffffffffffffffffffffffffffff1673ffffffffffffffffffffffffffffffffffffffff1681526020019081526020016000206000828254611fe3919061420f565b92505081905550816002600083815260200190815260200160002060006101000a81548173ffffffffffffffffffffffffffffffffffffffff021916908373ffffffffffffffffffffffffffffffffffffffff160217905550808273ffffffffffffffffffffffffffffffffffffffff168473ffffffffffffffffffffffffffffffffffffffff167fddf252ad1be2c89b69c2b068fc378daa952ba7f163c4a11628f55a4df523b3ef60405160405180910390a46120a28383836128a8565b505050565b612143848484846040516024016120c19493929190614243565b6040516020818303038152906040527ff45d7d2c000000000000000000000000000000000000000000000000000000007bffffffffffffffffffffffffffffffffffffffffffffffffffffffff19166020820180517bffffffffffffffffffffffffffffffffffffffffffffffffffffffff838183161783525050505061280e565b50505050565b6121e1828260405160240161215f929190614296565b6040516020818303038152906040527fb60e72cc000000000000000000000000000000000000000000000000000000007bffffffffffffffffffffffffffffffffffffffffffffffffffffffff19166020820180517bffffffffffffffffffffffffffffffffffffffffffffffffffffffff838183161783525050505061280e565b5050565b61227f8383836040516024016121fd939291906142c6565b6040516020818303038152906040527f5821efa1000000000000000000000000000000000000000000000000000000007bffffffffffffffffffffffffffffffffffffffffffffffffffffffff19166020820180517bffffffffffffffffffffffffffffffffffffffffffffffffffffffff838183161783525050505061280e565b505050565b8173ffffffffffffffffffffffffffffffffffffffff168373ffffffffffffffffffffffffffffffffffffffff16036122f2576040517f08c379a00000000000000000000000000000000000000000000000000000000081526004016122e990614357565b60405180910390fd5b80600560008573ffffffffffffffffffffffffffffffffffffffff1673ffffffffffffffffffffffffffffffffffffffff16815260200190815260200160002060008473ffffffffffffffffffffffffffffffffffffffff1673ffffffffffffffffffffffffffffffffffffffff16815260200190815260200160002060006101000a81548160ff0219169083151502179055508173ffffffffffffffffffffffffffffffffffffffff168373ffffffffffffffffffffffffffffffffffffffff167f17307eab39ab6107e8899845ad3d59bd9653f200f220920489ca2b5937696c31836040516123e39190612da4565b60405180910390a3505050565b6123fb848484611e41565b612407848484846128ad565b612446576040517f08c379a000000000000000000000000000000000000000000000000000000000815260040161243d906143e9565b60405180910390fd5b50505050565b606060008203612493576040518060400160405280600181526020017f300000000000000000000000000000000000000000000000000000000000000081525090506125a7565b600082905060005b600082146124c55780806124ae90614409565b915050600a826124be9190614480565b915061249b565b60008167ffffffffffffffff8111156124e1576124e06132f8565b5b6040519080825280601f01601f1916602001820160405280156125135781602001600182028036833780820191505090505b5090505b600085146125a05760018261252c91906138dd565b9150600a8561253b91906144b1565b6030612547919061420f565b60f81b81838151811061255d5761255c613de4565b5b60200101907effffffffffffffffffffffffffffffffffffffffffffffffffffffffffffff1916908160001a905350600a856125999190614480565b9450612517565b8093505050505b919050565b6060600082519050600081036125d4576040518060200160405280600081525091505061273e565b600060036002836125e5919061420f565b6125ef9190614480565b60046125fb91906144e2565b9050600060208261260c919061420f565b67ffffffffffffffff811115612625576126246132f8565b5b6040519080825280601f01601f1916602001820160405280156126575781602001600182028036833780820191505090505b509050600060405180606001604052806040815260200161478a604091399050600181016020830160005b868110156126fb5760038101905062ffffff818a015116603f8160121c168401518060081b905060ff603f83600c1c1686015116810190508060081b905060ff603f8360061c1686015116810190508060081b905060ff603f831686015116810190508060e01b90508084526004840193505050612682565b506003860660018114612715576002811461272557612730565b613d3d60f01b6002830352612730565b603d60f81b60018303525b508484525050819450505050505b919050565b600081600001549050919050565b61276b828260405180602001604052806000815250612a34565b5050565b61280983838360405160240161278793929190614524565b6040516020818303038152906040527fca47c4eb000000000000000000000000000000000000000000000000000000007bffffffffffffffffffffffffffffffffffffffffffffffffffffffff19166020820180517bffffffffffffffffffffffffffffffffffffffffffffffffffffffff838183161783525050505061280e565b505050565b60008151905060006a636f6e736f6c652e6c6f679050602083016000808483855afa5050505050565b60008073ffffffffffffffffffffffffffffffffffffffff166002600084815260200190815260200160002060009054906101000a900473ffffffffffffffffffffffffffffffffffffffff1673ffffffffffffffffffffffffffffffffffffffff1614159050919050565b505050565b505050565b60006128ce8473ffffffffffffffffffffffffffffffffffffffff16612a8f565b15612a27578373ffffffffffffffffffffffffffffffffffffffff1663150b7a026128f7611ceb565b8786866040518563ffffffff1660e01b815260040161291994939291906145b7565b6020604051808303816000875af192505050801561295557506040513d601f19601f820116820180604052508101906129529190614618565b60015b6129d7573d8060008114612985576040519150601f19603f3d011682016040523d82523d6000602084013e61298a565b606091505b5060008151036129cf576040517f08c379a00000000000000000000000000000000000000000000000000000000081526004016129c6906143e9565b60405180910390fd5b805181602001fd5b63150b7a0260e01b7bffffffffffffffffffffffffffffffffffffffffffffffffffffffff1916817bffffffffffffffffffffffffffffffffffffffffffffffffffffffff191614915050612a2c565b600190505b949350505050565b612a3e8383612ab2565b612a4b60008484846128ad565b612a8a576040517f08c379a0000000000000000000000000000000000000000000000000000000008152600401612a81906143e9565b60405180910390fd5b505050565b6000808273ffffffffffffffffffffffffffffffffffffffff163b119050919050565b600073ffffffffffffffffffffffffffffffffffffffff168273ffffffffffffffffffffffffffffffffffffffff1603612b21576040517f08c379a0000000000000000000000000000000000000000000000000000000008152600401612b1890614691565b60405180910390fd5b612b2a81612837565b15612b6a576040517f08c379a0000000000000000000000000000000000000000000000000000000008152600401612b61906146fd565b60405180910390fd5b612b76600083836128a3565b6001600360008473ffffffffffffffffffffffffffffffffffffffff1673ffffffffffffffffffffffffffffffffffffffff1681526020019081526020016000206000828254612bc6919061420f565b92505081905550816002600083815260200190815260200160002060006101000a81548173ffffffffffffffffffffffffffffffffffffffff021916908373ffffffffffffffffffffffffffffffffffffffff160217905550808273ffffffffffffffffffffffffffffffffffffffff16600073ffffffffffffffffffffffffffffffffffffffff167fddf252ad1be2c89b69c2b068fc378daa952ba7f163c4a11628f55a4df523b3ef60405160405180910390a4612c87600083836128a8565b5050565b6040518060a0016040528060608152602001606081526020016000815260200160008152602001600081525090565b6040518060c001604052806000815260200160608152602001606081526020016000815260200160008152602001600081525090565b6000604051905090565b600080fd5b600080fd5b60007fffffffff0000000000000000000000000000000000000000000000000000000082169050919050565b612d3981612d04565b8114612d4457600080fd5b50565b600081359050612d5681612d30565b92915050565b600060208284031215612d7257612d71612cfa565b5b6000612d8084828501612d47565b91505092915050565b60008115159050919050565b612d9e81612d89565b82525050565b6000602082019050612db96000830184612d95565b92915050565b600081519050919050565b600082825260208201905092915050565b60005b83811015612df9578082015181840152602081019050612dde565b60008484015250505050565b6000601f19601f8301169050919050565b6000612e2182612dbf565b612e2b8185612dca565b9350612e3b818560208601612ddb565b612e4481612e05565b840191505092915050565b60006020820190508181036000830152612e698184612e16565b905092915050565b6000819050919050565b612e8481612e71565b8114612e8f57600080fd5b50565b600081359050612ea181612e7b565b92915050565b600060208284031215612ebd57612ebc612cfa565b5b6000612ecb84828501612e92565b91505092915050565b600073ffffffffffffffffffffffffffffffffffffffff82169050919050565b6000612eff82612ed4565b9050919050565b612f0f81612ef4565b82525050565b6000602082019050612f2a6000830184612f06565b92915050565b612f3981612ef4565b8114612f4457600080fd5b50565b600081359050612f5681612f30565b92915050565b60008060408385031215612f7357612f72612cfa565b5b6000612f8185828601612f47565b9250506020612f9285828601612e92565b9150509250929050565b600080600060608486031215612fb557612fb4612cfa565b5b6000612fc386828701612f47565b9350506020612fd486828701612f47565b9250506040612fe586828701612e92565b9150509250925092565b60006020828403121561300557613004612cfa565b5b600061301384828501612f47565b91505092915050565b61302581612e71565b82525050565b6000602082019050613040600083018461301c565b92915050565b600081519050919050565b600082825260208201905092915050565b6000819050602082019050919050565b61307b81612e71565b82525050565b600082825260208201905092915050565b600061309d82612dbf565b6130a78185613081565b93506130b7818560208601612ddb565b6130c081612e05565b840191505092915050565b600060c0830160008301516130e36000860182613072565b50602083015184820360208601526130fb8282613092565b915050604083015184820360408601526131158282613092565b915050606083015161312a6060860182613072565b50608083015161313d6080860182613072565b5060a083015161315060a0860182613072565b508091505092915050565b600061316783836130cb565b905092915050565b6000602082019050919050565b600061318782613046565b6131918185613051565b9350836020820285016131a385613062565b8060005b858110156131df57848403895281516131c0858261315b565b94506131cb8361316f565b925060208a019950506001810190506131a7565b50829750879550505050505092915050565b6000602082019050818103600083015261320b818461317c565b905092915050565b61321c81612d89565b811461322757600080fd5b50565b60008135905061323981613213565b92915050565b6000806040838503121561325657613255612cfa565b5b600061326485828601612f47565b92505060206132758582860161322a565b9150509250929050565b600060c082019050613294600083018961301c565b81810360208301526132a68188612e16565b905081810360408301526132ba8187612e16565b90506132c9606083018661301c565b6132d6608083018561301c565b6132e360a083018461301c565b979650505050505050565b600080fd5b600080fd5b7f4e487b7100000000000000000000000000000000000000000000000000000000600052604160045260246000fd5b61333082612e05565b810181811067ffffffffffffffff8211171561334f5761334e6132f8565b5b80604052505050565b6000613362612cf0565b905061336e8282613327565b919050565b600067ffffffffffffffff82111561338e5761338d6132f8565b5b61339782612e05565b9050602081019050919050565b82818337600083830152505050565b60006133c66133c184613373565b613358565b9050828152602081018484840111156133e2576133e16132f3565b5b6133ed8482856133a4565b509392505050565b600082601f83011261340a576134096132ee565b5b813561341a8482602086016133b3565b91505092915050565b6000806000806080858703121561343d5761343c612cfa565b5b600061344b87828801612f47565b945050602061345c87828801612f47565b935050604061346d87828801612e92565b925050606085013567ffffffffffffffff81111561348e5761348d612cff565b5b61349a878288016133f5565b91505092959194509250565b600060a08301600083015184820360008601526134c38282613092565b915050602083015184820360208601526134dd8282613092565b91505060408301516134f26040860182613072565b5060608301516135056060860182613072565b5060808301516135186080860182613072565b508091505092915050565b6000602082019050818103600083015261353d81846134a6565b905092915050565b600060a082019050818103600083015261355f8188612e16565b905081810360208301526135738187612e16565b9050613582604083018661301c565b61358f606083018561301c565b61359c608083018461301c565b9695505050505050565b600060c0830160008301516135be6000860182613072565b50602083015184820360208601526135d68282613092565b915050604083015184820360408601526135f08282613092565b91505060608301516136056060860182613072565b5060808301516136186080860182613072565b5060a083015161362b60a0860182613072565b508091505092915050565b6000602082019050818103600083015261365081846135a6565b905092915050565b6000806040838503121561366f5761366e612cfa565b5b600061367d85828601612f47565b925050602061368e85828601612f47565b9150509250929050565b7f4e487b7100000000000000000000000000000000000000000000000000000000600052602260045260246000fd5b600060028204905060018216806136df57607f821691505b6020821081036136f2576136f1613698565b5b50919050565b7f4552433732313a20617070726f76616c20746f2063757272656e74206f776e6560008201527f7200000000000000000000000000000000000000000000000000000000000000602082015250565b6000613754602183612dca565b915061375f826136f8565b604082019050919050565b6000602082019050818103600083015261378381613747565b9050919050565b7f4552433732313a20617070726f76652063616c6c6572206973206e6f7420746f60008201527f6b656e206f776e6572206e6f7220617070726f76656420666f7220616c6c0000602082015250565b60006137e6603e83612dca565b91506137f18261378a565b604082019050919050565b60006020820190508181036000830152613815816137d9565b9050919050565b7f4552433732313a2063616c6c6572206973206e6f7420746f6b656e206f776e6560008201527f72206e6f7220617070726f766564000000000000000000000000000000000000602082015250565b6000613878602e83612dca565b91506138838261381c565b604082019050919050565b600060208201905081810360008301526138a78161386b565b9050919050565b7f4e487b7100000000000000000000000000000000000000000000000000000000600052601160045260246000fd5b60006138e882612e71565b91506138f383612e71565b925082820390508181111561390b5761390a6138ae565b5b92915050565b7f4552433732313a20696e76616c696420746f6b656e2049440000000000000000600082015250565b6000613947601883612dca565b915061395282613911565b602082019050919050565b600060208201905081810360008301526139768161393a565b9050919050565b7f4552433732313a2061646472657373207a65726f206973206e6f74206120766160008201527f6c6964206f776e65720000000000000000000000000000000000000000000000602082015250565b60006139d9602983612dca565b91506139e48261397d565b604082019050919050565b60006020820190508181036000830152613a08816139cc565b9050919050565b600081905092915050565b7f7b226e616d65223a202200000000000000000000000000000000000000000000600082015250565b6000613a50600a83613a0f565b9150613a5b82613a1a565b600a82019050919050565b6000613a7182612dbf565b613a7b8185613a0f565b9350613a8b818560208601612ddb565b80840191505092915050565b7f202d2d204e465420233a20000000000000000000000000000000000000000000600082015250565b6000613acd600b83613a0f565b9150613ad882613a97565b600b82019050919050565b7f222c20226465736372697074696f6e223a2022416e2065706963204e4654222c60008201527f2022696d616765223a2022697066733a2f2f0000000000000000000000000000602082015250565b6000613b3f603283613a0f565b9150613b4a82613ae3565b603282019050919050565b7f222c202261747472696275746573223a205b207b202274726169745f7479706560008201527f223a20224865616c746820506f696e7473222c202276616c7565223a20000000602082015250565b6000613bb1603d83613a0f565b9150613bbc82613b55565b603d82019050919050565b7f2c20226d61785f76616c7565223a000000000000000000000000000000000000600082015250565b6000613bfd600e83613a0f565b9150613c0882613bc7565b600e82019050919050565b7f7d2c207b202274726169745f74797065223a202241747461636b2044616d616760008201527f65222c202276616c7565223a2000000000000000000000000000000000000000602082015250565b6000613c6f602d83613a0f565b9150613c7a82613c13565b602d82019050919050565b7f7d205d7d00000000000000000000000000000000000000000000000000000000600082015250565b6000613cbb600483613a0f565b9150613cc682613c85565b600482019050919050565b6000613cdc82613a43565b9150613ce88289613a66565b9150613cf382613ac0565b9150613cff8288613a66565b9150613d0a82613b32565b9150613d168287613a66565b9150613d2182613ba4565b9150613d2d8286613a66565b9150613d3882613bf0565b9150613d448285613a66565b9150613d4f82613c62565b9150613d5b8284613a66565b9150613d6682613cae565b9150819050979650505050505050565b7f646174613a6170706c69636174696f6e2f6a736f6e3b6261736536342c000000600082015250565b6000613dac601d83613a0f565b9150613db782613d76565b601d82019050919050565b6000613dcd82613d9f565b9150613dd98284613a66565b915081905092915050565b7f4e487b7100000000000000000000000000000000000000000000000000000000600052603260045260246000fd5b60008190508160005260206000209050919050565b60006020601f8301049050919050565b600082821b905092915050565b600060088302613e757fffffffffffffffffffffffffffffffffffffffffffffffffffffffffffffffff82613e38565b613e7f8683613e38565b95508019841693508086168417925050509392505050565b6000819050919050565b6000613ebc613eb7613eb284612e71565b613e97565b612e71565b9050919050565b6000819050919050565b613ed683613ea1565b613eea613ee282613ec3565b848454613e45565b825550505050565b600090565b613eff613ef2565b613f0a818484613ecd565b505050565b5b81811015613f2e57613f23600082613ef7565b600181019050613f10565b5050565b601f821115613f7357613f4481613e13565b613f4d84613e28565b81016020851015613f5c578190505b613f70613f6885613e28565b830182613f0f565b50505b505050565b600082821c905092915050565b6000613f9660001984600802613f78565b1980831691505092915050565b6000613faf8383613f85565b9150826002028217905092915050565b613fc882612dbf565b67ffffffffffffffff811115613fe157613fe06132f8565b5b613feb82546136c7565b613ff6828285613f32565b600060209050601f8311600181146140295760008415614017578287015190505b6140218582613fa3565b865550614089565b601f19841661403786613e13565b60005b8281101561405f5784890151825560018201915060208501945060208101905061403a565b8683101561407c5784890151614078601f891682613f85565b8355505b6001600288020188555050505b505050505050565b600060808201905081810360008301526140ab8187612e16565b905081810360208301526140bf8186612e16565b90506140ce604083018561301c565b81810360608301526140e08184612e16565b905095945050505050565b7f4552433732313a207472616e736665722066726f6d20696e636f72726563742060008201527f6f776e6572000000000000000000000000000000000000000000000000000000602082015250565b6000614147602583612dca565b9150614152826140eb565b604082019050919050565b600060208201905081810360008301526141768161413a565b9050919050565b7f4552433732313a207472616e7366657220746f20746865207a65726f2061646460008201527f7265737300000000000000000000000000000000000000000000000000000000602082015250565b60006141d9602483612dca565b91506141e48261417d565b604082019050919050565b60006020820190508181036000830152614208816141cc565b9050919050565b600061421a82612e71565b915061422583612e71565b925082820190508082111561423d5761423c6138ae565b5b92915050565b6000608082019050818103600083015261425d8187612e16565b905081810360208301526142718186612e16565b9050614280604083018561301c565b61428d606083018461301c565b95945050505050565b600060408201905081810360008301526142b08185612e16565b90506142bf602083018461301c565b9392505050565b600060608201905081810360008301526142e08186612e16565b905081810360208301526142f48185612e16565b9050614303604083018461301c565b949350505050565b7f4552433732313a20617070726f766520746f2063616c6c657200000000000000600082015250565b6000614341601983612dca565b915061434c8261430b565b602082019050919050565b6000602082019050818103600083015261437081614334565b9050919050565b7f4552433732313a207472616e7366657220746f206e6f6e20455243373231526560008201527f63656976657220696d706c656d656e7465720000000000000000000000000000602082015250565b60006143d3603283612dca565b91506143de82614377565b604082019050919050565b60006020820190508181036000830152614402816143c6565b9050919050565b600061441482612e71565b91507fffffffffffffffffffffffffffffffffffffffffffffffffffffffffffffffff8203614446576144456138ae565b5b600182019050919050565b7f4e487b7100000000000000000000000000000000000000000000000000000000600052601260045260246000fd5b600061448b82612e71565b915061449683612e71565b9250826144a6576144a5614451565b5b828204905092915050565b60006144bc82612e71565b91506144c783612e71565b9250826144d7576144d6614451565b5b828206905092915050565b60006144ed82612e71565b91506144f883612e71565b925082820261450681612e71565b9150828204841483151761451d5761451c6138ae565b5b5092915050565b6000606082019050818103600083015261453e8186612e16565b905061454d602083018561301c565b61455a604083018461301c565b949350505050565b600081519050919050565b600082825260208201905092915050565b600061458982614562565b614593818561456d565b93506145a3818560208601612ddb565b6145ac81612e05565b840191505092915050565b60006080820190506145cc6000830187612f06565b6145d96020830186612f06565b6145e6604083018561301c565b81810360608301526145f8818461457e565b905095945050505050565b60008151905061461281612d30565b92915050565b60006020828403121561462e5761462d612cfa565b5b600061463c84828501614603565b91505092915050565b7f4552433732313a206d696e7420746f20746865207a65726f2061646472657373600082015250565b600061467b602083612dca565b915061468682614645565b602082019050919050565b600060208201905081810360008301526146aa8161466e565b9050919050565b7f4552433732313a20746f6b656e20616c7265616479206d696e74656400000000600082015250565b60006146e7601c83612dca565b91506146f2826146b1565b602082019050919050565b60006020820190508181036000830152614716816146da565b905091905056fe506c617965722061747461636b656420626f73732e204e657720626f73732068703a2025730a506c6179657220636861657261637465722025732061626f757420746f2061747461636b2e486173202f7720257320487020616e642025732041747461636b2044616d6167654142434445464748494a4b4c4d4e4f505152535455565758595a6162636465666768696a6b6c6d6e6f707172737475767778797a303132333435363738392b2f426f73732061747461636b656420706c617965722e204e657720706c617965722068703a2025730a4d696e746564204e465420772f20746f6b656e496420257320616e6420636861726163746572496e646578202573426f73732061747461636b206f6e20706c61796572202573202e4e657720506c617965722048703aa26469706673582212204670832979360d471c42430a2698e57ffd78da8b6edd1b5ca0bd043b7ff9be5364736f6c63430008110033446f6e6520696e697469616c697a696e6720257320772f2048502025732c20696d67202573446f6e6520696e697469616c697a696e6720626f737320257320772f2048502025732c20696d6720202573",
  "linkReferences": {},
  "deployedLinkReferences": {}
}